:03000000020DF7F7
:0C0DF700787FE4F6D8FD758165020E3EA1
:100FF80022BEE0C0EB44697374616E63653A256490
:10100800223A20636D0D0A00000000000000000075
:0410180000000000D4
:10101C00011200020C001E010A00020E0000010B5E
:10102C00000111000110FFC10902130000010800AA
:03103C00010900A7
:0E10B600E4FD7FA01210D27DFF7F800210D2D9
:0810EA008F993099FDC2992293
:100FD3008B3E8A3F8940AB3EAA3FA94012065B6025
:100FE300130540E5407002053F14F912065BFF123A
:050FF30010EA80E2227B
:10107B00D3E50A949674809480400AE4F50A120F23
:06108B00348E0E8F0F22CF
:100CCD00D3E50B940F748094805003020D68E4F506
:100CDD000B1210C4AF1F7E00EF64887007E512047D
:100CED005401F512EF64484E700AE5127006850E38
:100CFD000C850F0DE51F64287011E5126401700B52
:100D0D00740A250DF50DE4350CF50CAF1F7E00EFC3
:100D1D0064187012E5126401700C74F6250DF50D52
:100D2D0074FF350CF50CEF64444E702F7541FF7553
:100D3D00420F7543F8850E44850F45FB7A007922E5
:100D4D001207D47B007A007922120FD37E007F1C0C
:0B0D5D007D007B007A00792212074C19
:010D68002268
:100BE700D3E5119401748094805003020CCCE4F592
:100BF70011E512FB7A00705A75163E9010E093F5D6
:100C0700179010E9E493F518F519F51AAE0EAF0F22
:100C17007C007D641206B37C007D0A1206B374DF84
:100C27002DF58274103CF583E493F51BAE0EAF0FE0
:100C37007C007D0A1206B37C007D0A1206B374DFBE
:100C47002DF58274103CF583E493F51CAE0EAF0FBF
:100C5700805EEB64014A706D75163E9010E193F566
:100C6700179010E9E493F518F519F51AAE0CAF0DC6
:100C77007C007D641206B37C007D0A1206B374DF24
:100C87002DF58274103CF583E493F51BAE0CAF0D84
:100C97007C007D0A1206B37C007D0A1206B374DF5E
:100CA7002DF58274103CF583E493F51CAE0CAF0D63
:100CB7007C007D0A1206B374DF2DF58274103CF5B3
:060CC70083E493F51D22F9
:101064001210A41200031210B6121091120BE71200
:071074000CCD12107B80F58A
:100E8300AF127E00EF70037510FEEF64014E700326
:100E93007510FDD3E50F950DE50E950C400C05146B
:100EA300E51470020513D2098002C209300924D364
:100EB300E51494C8E513940050055310FB8017D331
:100EC300E5149490E513940150028007E4F513F5BB
:0D0ED300148003431004AD107F800210D284
:03006300020EE0AA
:100EE000C0E0C0F0C083C082C0D075D000C000C0D8
:0D0EF00001C002C003C004C005C006C00759
:100EFD000508050B050A0511C3E5089402748094D5
:0C0F0D00804006750800120F7D120E8354
:100F1900D007D006D005D004D003D002D001D0002C
:0B0F2900D0D0D082D083D0F0D0E032D6
:03002300020D6962
:100D6900C0E0C0F0C083C082C0D075D000C000C050
:0D0D790001C002C003C004C005C006C007D1
:100D8600785A7C007D007BFF7A1079107E007F0CFC
:100D9600120635309840C298AF99BF6F03750900A7
:100DA600AE090509745A2EF8A607E55DB46E047FF0
:100DB6000180027F008F5BEF60147F391210EA7E9C
:100DC600007F0C7D007B007A00795A12074CE509FA
:060DD600640C7002F50937
:100DDC00D007D006D005D004D003D002D001D0006B
:0B0DEC00D0D0D082D083D0F0D0E03215
:0D10D2008D80E5A0541F4FF5A053A01F22F4
:0B10DF003F065B4F666D7D077F6F00D2
:100F7D00E4FD7FC01210D274162515F8E6F4FD7F3E
:100F8D00E01210D2AF15A8077401088002C333D840
:0E0F9D00FCFD7FC01210D2E515045407F515B7
:010FAB002223
:100026007FFF75B0F075C0FF20C4027F7020C2024A
:100036007FB020B5027FD020B4027FE075B00FE418
:10004600F5C020B30343070720B20343070B20B1D3
:0A0056000343070D20B00343070E1B
:01006000227D
:0D10C400120026EFF4FF651E5FF51F8F1E62
:0110D10022FC
:10000300759850438E40538EFE53890F758BE6755A
:0B0013008DFFC2ABD28ED2ACD2AF2268
:10109100538E7F5389F0438901E4F58AF58CC28D23
:0310A100C28C22DC
:10104000E4F526AF26EF3395E0FEC3EF9408EE6497
:10105000809480500ED2901210F2C2901210F205BD
:031060002680E007
:01106300226A
:100F3400E4F525F524F523F522F58AF58C12104005
:100F4400D28C309103308DFAC28C308D04C28D80E6
:100F54001DAF8CEFAD8AFCEC1201717B967A43795C
:100F64008B783C1200668F258E248D238C22AF252E
:090F7400AE24AD23AC220201AA57
:1010A400438E0475D72075D6D1438E1043AF04D236
:0210B400AF2269
:0610F20000007F24DFFE78
:0110F80022D5
:10006600EC4D6011E8497017ED33EC3304600DE494
:10007600FCFFFEFD22E933E8330470F80202161293
:1000860001E158046009E4CC248150062850090295
:10009600022028400302021DC0E0EB4A7044B980EA
:1000A60006D0E0FB02020CEF4E701CBD8008EBFF91
:1000B600EAFEE9FD80EBE98DF0A4FEE5F002014FD2
:1000C600E9CDF9EAFEEBFFEF89F0A4FCE5F0CE8975
:1000D600F0A42EFFE435F0CD89F0A42DFEE435F032
:1000E6008067EF4E7005BD80D780C3EF8BF0A4AC60
:1000F600F0EE8BF0A42CFCE435F0F8EF8AF0A42C9B
:10010600E5F038FCE433CB8DF0A42CFCE5F03BF8AD
:10011600EE8AF0A42CFCE5F038F8E433CF89F0A49D
:100126002CFCE5F038CF3400CE89F0A42FFFE5F0A3
:100136003EFEE433C98DF0A42EFEE5F039CD8AF0FB
:10014600A42FFFE5F03EFEE43DFD33D0E0FB500773
:100156000BBB000F020220EC2CFCEF33FFEE33FE4C
:06016600ED33FD0201F87B
:10016C0075F020800E75F010800575F0087D007E0E
:10017C00007F003392D530D503120708EC334010C2
:10018C00EF33FFEE33FEED33FDEC33FCD5F0ED2217
:0E019C00E5F0247EA2D513CC92E7CDCEFF2253
:1001AA00EDD2E7CD33EC3392D524814006E4FFFE4D
:1001BA00FDFC22FCE4CFCECDCC24E0501174FF80AC
:1001CA00EDC3CC13CCCD13CDCE13CECF13CF047049
:0701DA00F030D5DE0207083A
:10077800E5552441F8E6055522783E3007027841D0
:10078800E475F00112071602065B2000EB7F2ED2FB
:10079800008018EF540F2490D43440D4FF30040B59
:1007A800EF24BFB41A0050032461FFE55660021518
:1007B800560559E5597002055830070D783EE4751D
:1007C800F001120716EF0206A1020FAC7403D2075C
:1007D8008003E4C207F5558B3E8A3F8940E4F5560D
:1007E800F558F559E55660077F201207B380F5756F
:1007F80057FFC201C200C202C203C205C206C20834
:10080800120781FF700D3007057F001207C4AF592A
:10081800AE5822B4255FC2D5C204120781FF24D086
:10082800B40A00501A75F00A785630D50508B6FF94
:100838000106C6A426F620D5047002D20380D92466
:10084800CFB41A00EF5004C2E5D204020AB1D201B3
:1008580080C6D20080C0D20280BCD2D580BAD20570
:1008680080B47F201207B32002077401B5560040F8
:10087800F1120778FF1207B30207ECD208D20680FC
:1008880095120778FB120778FA120778F94A4B7025
:100898000679A87A0B7BFF20022EE556602A7E0097
:1008A8008E8275830012067460060EEE655770F02E
:1008B800C2D5EBC0E0EAC0E0E9C0E0EE120B11D00F
:1008C800E0F9D0E0FAD0E0FB12065BFF60AAEBC0CB
:1008D800E0EAC0E0E9C0E01207B3D0E02401F9D0B3
:1008E800E03400FAD0E0FBE5570460DCD557D98046
:1008F80087D20280A2120AF460F7E5577001041249
:10090800022BA957600DE557600914F557120B9B88
:10091800EF60F3EA30E702F404C3995077EAF4256C
:10092800570430E701E404F557800D120AF460C15A
:10093800EA0557255712022BEA7854F630E701E406
:10094800255704D5570420050114120B11E4C0E003
:10095800120B9B7854E6601320E70714F612079BE6
:10096800802204F6D0E014C0E07F0012079BE55710
:1009780060071207921557800B300503120792D0B3
:10098800E00207ECD0E00480C5120AF460A0E55745
:100998000412022B7854EAF6E55720050260010498
:0509A8002404120B11F4
:1009AD0074FF04C0E0120B9B12079BE55720050254
:1009BD006003120792D0E0B557E87F451207A5787E
:1009CD0054E67F2B30E7047F2DF404C0E01207B30B
:1009DD00D0E075F00A84C0F012079CD0E012079C9D
:1009ED000207EC791080027908C206C2088008D28D
:1009FD00D5790A8004790AC2D5E557047002F557F6
:100A0D00E4FAFDFEFF120778FC7B082001131207A4
:100A1D0078FD7B1030000A120778FE120778FF7BF5
:100A2D0020EC3382D592D55013C3E43000069FFFDE
:100A3D00E49EFEE42001039DFDE49CFCE4CBF8C2A2
:100A4D0001EC700CCFCECDCCE824F8F870F3801704
:100A5D00C3EF33FFEE33FEED33FDEC33FCEB33FB35
:100A6D00994002FB0FD8E9EB300105F8D0E0C448FE
:100A7D00B201C0E00AEC4D4E4F78207B0070C2EA07
:100A8D00B5570040BCC0E0120B13D0F0D0E02001F0
:100A9D0004C4C0E0C4B201C0F012079CD0F0D5F080
:100AAD00EB0207EC12072608895309F058085A4C37
:100ABD0008564209F44F09FC4409FC49086F430AE2
:100ACD00025509334609914508FD470BC850085E8C
:100ADD002D08622E08852B0866230883200BB12A6A
:100AED00081E480000087DE557B4FF037557061230
:100AFD000778FC120778FD120778FE120778FF7849
:100B0D004D02025A790AA2D5200314300509B910F5
:100B1D00020404B9080104A2D520060250010420E4
:100B2D0002689202B556005034C0E07F20300319A0
:100B3D007F30A20272067205500F120B6AC202C2FA
:100B4D0006C205C2087F30800F300503E9C0E012F0
:100B5D0007B3300503D0E0F9D0E0B556CC3005171A
:100B6D007F30B9100C1207B37F583004077F78809F
:100B7D0003B908031207B33002057F2D0207B37FB7
:100B8D00202008F87F2B2006F322920280CF7F00D1
:100B9D00B407005005244DF8E6FF22286E756C6CE5
:100BAD002900D2011207783001F8C201785630D5EC
:100BBD000108F602081E2D504349581207782403E8
:100BCD00B405004001E4900BC3931207A4743A12CC
:0A0BDD0007A4D2037556040209F0C4
:1001E100E9D2E7C933E833F892D5EDD2E7CD33EC64
:0701F10033FC5002B2D522DD
:1001F800EC30E7100FBF000C0EBE00080DBD000468
:100208000BEB6014A2D5EB13FCED92E7FD2274FF13
:10021800FCFDFEFF22E480F8A2D574FF13FC7D806C
:03022800E480EF80
:10022B00F920E72824F950037907E4F42402FB189A
:10023B00DBFDE624FB5014E9600DE4F618E604F64A
:0F024B00B40A08E4F6D9F57401F60A22C2D522E6
:10025A00ED33EC3392D5FA602AB4FF33EDC2E77B73
:10026A00FF60067A02797FE4227A02798820D5042F
:10027A007A027983224E614E002B494E46002D495F
:10028A004E4600E47A08F608DAFC7B00740722E896
:10029A00C0E0ECC0E0EDC0E0EEC0E0EFC0E0EA751F
:1002AA00F010A4CAABF075F04DA42BFBE435F0FCBA
:1002BA00EA2410FAEB34C5FBEC34D9FCEDC2E7FFB3
:1002CA0075F056A4F42411C5F0F434C58FF0A42AAD
:1002DA00E5F03BE43CF620E714120525D0E0FFD018
:1002EA00E0FED0E0FDD0E0FC1204588014F40412C1
:1002FA000525D0E0FFD0E0FED0E0FDD0E0FC120002
:10030A0066D0E0F8E6FAEDD2E7CD33EC332482FB8F
:10031A00E4C3CF33CFCE33CECD33CD33DBF37B073C
:10032A0075F00A846004F6081B0AE5F0F6088FF0F7
:10033A00740AA4FFACF08EF0740AA42CFEACF05040
:10034A00010C8DF0740AA42CFDE435F0F608DBDE0E
:03035A0074072203
:10035D00020216E86480F8E933E83360110460F0B6
:10036D00ED33EC337009E8FCE9FDEAFEEBFF220406
:10037D0060DED3EB9FEA9EE99DE8C2E78CF0C2F701
:10038D0095F0400CE8CCF8E9CDF9EACEFAEBCFFBCD
:10039D001201E185D0F05804700320D5B3E8047044
:1003AD00075002B2D502022092D5EC0460F7E4CCDE
:1003BD00C0E0C398F8603B94186008400DD0E0FB96
:1003CD000201F8E4FBFAC9FC8028E830E406E4C930
:1003DD00FBE4CAFCE830E305E4C9CACBFCE85407EA
:1003ED006010F8C3E913F9EA13FAEB13FBEC13FCF5
:1003FD00D8F130F52FC3E49CFCEF9BFFEE9AFEED98
:10040D0099FDD0E0FBEF4E4D4C701222DB03020242
:10041D001DEC2CFCEF33FFEE33FEED33FDED30E73D
:10042D00EB0201F8EF2BFFEE3AFEED39FDD0E0FBCC
:10043D0050130BBB0003020220ED13FDEE13FEEF74
:08044D0013FFEC13FC0201F89F
:10045500020220EC5D046005E859047003020216EF
:100465001201E1580460F6EC4860F2EC7004FDFE00
:10047500FF22C860DB2481C85009C398600250067A
:1004850002021D9850CAF582E9294B4A7005AB82D4
:1004950002020C75F0007C1A7880C3EF9BEE9AED92
:1004A50099400DC3EF9BFFEE9AFEED99FDE842F0F2
:1004B500DC23ACF0D0E0FFD0E0FED0E0FDAB822045
:1004C500E7101BEB60BAEC2CFCEF33FFEE33FEEDCF
:1004D50033FD0201F8E803F830E705C0F075F000D8
:1004E500EF2FFFEE33FEED33FD40B830E7C280AAB3
:1004F5003F8000004120000042C80000447A00000F
:10050500461C400047C35000497424004B18968090
:100515004CBEBC205A0E1BCA6753C21C749DC5AE87
:10052500FB60065407601C2323120553EB54386007
:100535000912053F12054E120066ECF8EDF9EEFAC8
:10054500EFCB22EB12054E80F1543803241C9004A6
:10055500F5FE93FC0EEE93FD0EEE930ECE93FF2269
:100E0300021064E493A3F8E493A34003F68001F291
:100E130008DFF48029E493A3F85407240CC8C333F0
:100E2300C4540F4420C8834004F456800146F6DFBF
:100E3300E4800B010204081020408090101CE47E23
:100E4300019360BCA3FF543F30E509541FFEE493B4
:100E5300A360010ECF54C025E060A840B8E493A37B
:100E6300FAE493A3F8E493A3C8C582C8CAC583CAA6
:100E7300F0A3C8C582C8CAC583CADFE9DEE780BE5E
:01103F0000B0
:10056500E709F608DFFA8046E709F208DFFA803E78
:1005750088828C83E709F0A3DFFA8032E309F60865
:10058500DFFA8078E309F208DFFA807088828C83CD
:10059500E309F0A3DFFA806489828A83E0A3F60881
:1005A500DFFA805889828A83E0A3F208DFFA804C5B
:1005B50080D280FA80C680D4806980F28033801032
:1005C50080A680EA809A80A880DA80E280CA80339B
:1005D50089828A83ECFAE493A3C8C582C8CCC58313
:1005E500CCF0A3C8C582C8CCC583CCDFE9DEE780E3
:1005F5000D89828A83E493A3F608DFF9ECFAA9F062
:10060500EDFB2289828A83ECFAE0A3C8C582C8CCB7
:10061500C583CCF0A3C8C582C8CCC583CCDFEADED0
:10062500E880DB89828A83E493A3F208DFF980CC32
:1006350088F0EF60010E4E60C388F0ED2402B4042B
:100645000050B9F582EB2402B4040050AF232345D2
:0606550082239005B5733D
:10065B00BB010689828A83E0225002E722BBFE029D
:09066B00E32289828A83E49322D0
:10067400BB010CE58229F582E5833AF583E022503B
:1006840006E92582F8E622BBFE06E92582F8E22285
:0D069400E58229F582E5833AF583E493229F
:1006A100BB010689828A83F0225002F722BBFE0138
:0206B100F32232
:1006B300BC000BBE0029EF8DF084FFADF022E4CC2B
:1006C300F875F008EF2FFFEE33FEEC33FCEE9DECF4
:1006D300984005FCEE9DFE0FD5F0E9E4CEFD22ED3A
:1006E300F8F5F0EE8420D21CFEADF075F008EF2F84
:1006F300FFED33FD4007985006D5F0F222C398FD75
:050703000FD5F0EA2211
:0E070800C3E49FFFE49EFEE49DFDE49CFC2202
:10071600FAE6FB0808E6F925F0F618E6CA3AF622E4
:10072600D083D082F8E4937012740193700DA3A362
:1007360093F8740193F5828883E473740293686076
:06074600EFA3A3A380DF76
:100FAC00EFB40A07740D120FB7740A309811A89990
:100FBC00B8130CC2983098FDA899C298B811F630A5
:070FCC0099FDC299F599227D
:10074C00EF4E6012EF60010EEDBB010B89828A83C4
:10075C00F0A3DFFCDEFA2289F05007F709DFFCA9D1
:0C076C00F022BBFEFCF309DFFCA9F02228
:00000001FF
